{
  "address": "0xdF1d52eb6B9648a25E75343B6DD2e4C3e7Be98CB",
  "abi": [
    {
      "inputs": [
        {
          "internalType": "address",
          "name": "vrfCoordinatorV2",
          "type": "address"
        },
        {
          "internalType": "uint256",
          "name": "entranceFee",
          "type": "uint256"
        },
        {
          "internalType": "bytes32",
          "name": "gasLane",
          "type": "bytes32"
        },
        {
          "internalType": "uint64",
          "name": "subscriptionId",
          "type": "uint64"
        },
        {
          "internalType": "uint32",
          "name": "callbackGasLimit",
          "type": "uint32"
        },
        {
          "internalType": "uint256",
          "name": "interval",
          "type": "uint256"
        }
      ],
      "stateMutability": "nonpayable",
      "type": "constructor"
    },
    {
      "inputs": [
        {
          "internalType": "address",
          "name": "have",
          "type": "address"
        },
        {
          "internalType": "address",
          "name": "want",
          "type": "address"
        }
      ],
      "name": "OnlyCoordinatorCanFulfill",
      "type": "error"
    },
    {
      "inputs": [],
      "name": "Raffle__NotEnoughETHEntered",
      "type": "error"
    },
    {
      "inputs": [],
      "name": "Raffle__NotOpen",
      "type": "error"
    },
    {
      "inputs": [],
      "name": "Raffle__TransferFailed",
      "type": "error"
    },
    {
      "inputs": [
        {
          "internalType": "uint256",
          "name": "currentBalance",
          "type": "uint256"
        },
        {
          "internalType": "uint256",
          "name": "numPlayers",
          "type": "uint256"
        },
        {
          "internalType": "uint256",
          "name": "raffleState",
          "type": "uint256"
        }
      ],
      "name": "Raffle__UpkeepNotNeeded",
      "type": "error"
    },
    {
      "anonymous": false,
      "inputs": [
        {
          "indexed": true,
          "internalType": "address",
          "name": "player",
          "type": "address"
        }
      ],
      "name": "RaffleEnter",
      "type": "event"
    },
    {
      "anonymous": false,
      "inputs": [
        {
          "indexed": true,
          "internalType": "uint256",
          "name": "requestId",
          "type": "uint256"
        }
      ],
      "name": "RequestedRaffleWinner",
      "type": "event"
    },
    {
      "anonymous": false,
      "inputs": [
        {
          "indexed": true,
          "internalType": "address",
          "name": "winner",
          "type": "address"
        }
      ],
      "name": "WinnerPicked",
      "type": "event"
    },
    {
      "inputs": [
        {
          "internalType": "bytes",
          "name": "",
          "type": "bytes"
        }
      ],
      "name": "checkUpkeep",
      "outputs": [
        {
          "internalType": "bool",
          "name": "upkeepNeeded",
          "type": "bool"
        },
        {
          "internalType": "bytes",
          "name": "",
          "type": "bytes"
        }
      ],
      "stateMutability": "nonpayable",
      "type": "function"
    },
    {
      "inputs": [],
      "name": "enterRaffle",
      "outputs": [],
      "stateMutability": "payable",
      "type": "function"
    },
    {
      "inputs": [],
      "name": "getEntranceFee",
      "outputs": [
        {
          "internalType": "uint256",
          "name": "",
          "type": "uint256"
        }
      ],
      "stateMutability": "view",
      "type": "function"
    },
    {
      "inputs": [],
      "name": "getInterval",
      "outputs": [
        {
          "internalType": "uint256",
          "name": "",
          "type": "uint256"
        }
      ],
      "stateMutability": "view",
      "type": "function"
    },
    {
      "inputs": [],
      "name": "getLatestTimestamp",
      "outputs": [
        {
          "internalType": "uint256",
          "name": "",
          "type": "uint256"
        }
      ],
      "stateMutability": "view",
      "type": "function"
    },
    {
      "inputs": [],
      "name": "getNumWords",
      "outputs": [
        {
          "internalType": "uint256",
          "name": "",
          "type": "uint256"
        }
      ],
      "stateMutability": "pure",
      "type": "function"
    },
    {
      "inputs": [],
      "name": "getNumberOfPlayers",
      "outputs": [
        {
          "internalType": "uint256",
          "name": "",
          "type": "uint256"
        }
      ],
      "stateMutability": "view",
      "type": "function"
    },
    {
      "inputs": [
        {
          "internalType": "uint256",
          "name": "index",
          "type": "uint256"
        }
      ],
      "name": "getPlayer",
      "outputs": [
        {
          "internalType": "address",
          "name": "",
          "type": "address"
        }
      ],
      "stateMutability": "view",
      "type": "function"
    },
    {
      "inputs": [],
      "name": "getRaffleState",
      "outputs": [
        {
          "internalType": "enum Raffle.RaffleState",
          "name": "",
          "type": "uint8"
        }
      ],
      "stateMutability": "view",
      "type": "function"
    },
    {
      "inputs": [],
      "name": "getRecentWinner",
      "outputs": [
        {
          "internalType": "address",
          "name": "",
          "type": "address"
        }
      ],
      "stateMutability": "view",
      "type": "function"
    },
    {
      "inputs": [],
      "name": "getRequestConformations",
      "outputs": [
        {
          "internalType": "uint256",
          "name": "",
          "type": "uint256"
        }
      ],
      "stateMutability": "pure",
      "type": "function"
    },
    {
      "inputs": [
        {
          "internalType": "bytes",
          "name": "",
          "type": "bytes"
        }
      ],
      "name": "performUpkeep",
      "outputs": [],
      "stateMutability": "nonpayable",
      "type": "function"
    },
    {
      "inputs": [
        {
          "internalType": "uint256",
          "name": "requestId",
          "type": "uint256"
        },
        {
          "internalType": "uint256[]",
          "name": "randomWords",
          "type": "uint256[]"
        }
      ],
      "name": "rawFulfillRandomWords",
      "outputs": [],
      "stateMutability": "nonpayable",
      "type": "function"
    }
  ],
  "transactionHash": "0x5c5d70ffdf0c957b858261910ab7648d0d84d04b8467c64543175b3afc23d739",
  "args": [
    "0x2ca8e0c643bde4c2e08ab1fa0da3401adad7734d",
    "10000000000000000",
    "0x79d3d8832d904592c0bf9818b621522c988bb8b0c05cdc3b15aea1b6e8db0c15",
    "6528",
    "500000",
    "30"
  ],
  "numDeployments": 1,
  "solcInputHash": "79cdf61a77903533d7181de79c77fd97",
  "bytecode": "0x6101406040523480156200001257600080fd5b50604051620017ec380380620017ec833981810160405281019062000038919062000292565b858073ffffffffffffffffffffffffffffffffffffffff1660808173ffffffffffffffffffffffffffffffffffffffff1681525050508460a081815250508573ffffffffffffffffffffffffffffffffffffffff1660c08173ffffffffffffffffffffffffffffffffffffffff16815250508360e081815250508267ffffffffffffffff166101008167ffffffffffffffff16815250508163ffffffff166101208163ffffffff16815250506000600160146101000a81548160ff021916908360018111156200010d576200010c6200032e565b5b021790555042600281905550806003819055505050505050506200035d565b600080fd5b600073ffffffffffffffffffffffffffffffffffffffff82169050919050565b60006200015e8262000131565b9050919050565b620001708162000151565b81146200017c57600080fd5b50565b600081519050620001908162000165565b92915050565b6000819050919050565b620001ab8162000196565b8114620001b757600080fd5b50565b600081519050620001cb81620001a0565b92915050565b6000819050919050565b620001e681620001d1565b8114620001f257600080fd5b50565b6000815190506200020681620001db565b92915050565b600067ffffffffffffffff82169050919050565b6200022b816200020c565b81146200023757600080fd5b50565b6000815190506200024b8162000220565b92915050565b600063ffffffff82169050919050565b6200026c8162000251565b81146200027857600080fd5b50565b6000815190506200028c8162000261565b92915050565b60008060008060008060c08789031215620002b257620002b16200012c565b5b6000620002c289828a016200017f565b9650506020620002d589828a01620001ba565b9550506040620002e889828a01620001f5565b9450506060620002fb89828a016200023a565b93505060806200030e89828a016200027b565b92505060a06200032189828a01620001ba565b9150509295509295509295565b7f4e487b7100000000000000000000000000000000000000000000000000000000600052602160045260246000fd5b60805160a05160c05160e0516101005161012051611431620003bb60003960006106a70152600061068401526000610663015260006106270152600081816103060152610403015260008181610343015261039701526114316000f3fe6080604052600436106100c15760003560e01c8063473f1ddc1161007f57806391ad27b41161005957806391ad27b414610237578063e55ae4e814610262578063f43b52cb1461029f578063fd6673f5146102ca576100c1565b8063473f1ddc146101a357806353a2c19a146101ce5780636e04ff0d146101f9576100c1565b8062ae0c3f146100c657806309bc33a7146100f1578063115cbaf51461011c5780631fe543e3146101475780632cfcc539146101705780634585e33b1461017a575b600080fd5b3480156100d257600080fd5b506100db6102f5565b6040516100e89190610bbb565b60405180910390f35b3480156100fd57600080fd5b50610106610302565b6040516101139190610bbb565b60405180910390f35b34801561012857600080fd5b5061013161032a565b60405161013e9190610c4d565b60405180910390f35b34801561015357600080fd5b5061016e60048036038101906101699190610e01565b610341565b005b610178610401565b005b34801561018657600080fd5b506101a1600480360381019061019c9190610eb8565b610570565b005b3480156101af57600080fd5b506101b8610760565b6040516101c59190610f46565b60405180910390f35b3480156101da57600080fd5b506101e361078a565b6040516101f09190610bbb565b60405180910390f35b34801561020557600080fd5b50610220600480360381019061021b9190611016565b610799565b60405161022e9291906110f9565b60405180910390f35b34801561024357600080fd5b5061024c610863565b6040516102599190610bbb565b60405180910390f35b34801561026e57600080fd5b5061028960048036038101906102849190611129565b61086d565b6040516102969190610f46565b60405180910390f35b3480156102ab57600080fd5b506102b46108b4565b6040516102c19190610bbb565b60405180910390f35b3480156102d657600080fd5b506102df6108be565b6040516102ec9190610bbb565b60405180910390f35b6000600361ffff16905090565b60007f0000000000000000000000000000000000000000000000000000000000000000905090565b6000600160149054906101000a900460ff16905090565b7f000000000000000000000000000000000000000000000000000000000000000073ffffffffffffffffffffffffffffffffffffffff163373ffffffffffffffffffffffffffffffffffffffff16146103f357337f00000000000000000000000000000000000000000000000000000000000000006040517f1cf993f40000000000000000000000000000000000000000000000000000000081526004016103ea929190611156565b60405180910390fd5b6103fd82826108ca565b5050565b7f000000000000000000000000000000000000000000000000000000000000000034101561045b576040517fbd4e069500000000000000000000000000000000000000000000000000000000815260040160405180910390fd5b6000600181111561046f5761046e610bd6565b5b600160149054906101000a900460ff16600181111561049157610490610bd6565b5b146104c8576040517f1425571c00000000000000000000000000000000000000000000000000000000815260040160405180910390fd5b6000339080600181540180825580915050600190039060005260206000200160009091909190916101000a81548173ffffffffffffffffffffffffffffffffffffffff021916908373ffffffffffffffffffffffffffffffffffffffff1602179055503373ffffffffffffffffffffffffffffffffffffffff167f0805e1d667bddb8a95f0f09880cf94f403fb596ce79928d9f29b74203ba284d460405160405180910390a2565b600061058a60405180602001604052806000815250610799565b509050806105f95747600080549050600160149054906101000a900460ff1660018111156105bb576105ba610bd6565b5b6040517f584327aa0000000000000000000000000000000000000000000000000000000081526004016105f09392919061117f565b60405180910390fd5b60018060146101000a81548160ff0219169083600181111561061e5761061d610bd6565b5b021790555060007f000000000000000000000000000000000000000000000000000000000000000073ffffffffffffffffffffffffffffffffffffffff16635d3b1d307f00000000000000000000000000000000000000000000000000000000000000007f000000000000000000000000000000000000000000000000000000000000000060037f000000000000000000000000000000000000000000000000000000000000000060016040518663ffffffff1660e01b81526004016106e895949392919061122e565b6020604051808303816000875af1158015610707573d6000803e3d6000fd5b505050506040513d601f19601f8201168201806040525081019061072b9190611296565b9050807fcd6e45c8998311cab7e9d4385596cac867e20a0587194b954fa3a731c93ce78b60405160405180910390a250505050565b6000600160009054906101000a900473ffffffffffffffffffffffffffffffffffffffff16905090565b6000600163ffffffff16905090565b600060606000600160149054906101000a900460ff1660018111156107c1576107c0610bd6565b5b600060018111156107d5576107d4610bd6565b5b1490506000600354600254426107eb91906112f2565b1190506000806000805490501190506000804711905083801561080b5750825b80156108145750815b801561081d5750805b9550856040518060400160405280600381526020017f30783000000000000000000000000000000000000000000000000000000000008152509550955050505050915091565b6000600354905090565b600080828154811061088257610881611326565b5b9060005260206000200160009054906101000a900473ffffffffffffffffffffffffffffffffffffffff169050919050565b6000600254905090565b60008080549050905090565b60008080549050826000815181106108e5576108e4611326565b5b60200260200101516108f79190611384565b9050600080828154811061090e5761090d611326565b5b9060005260206000200160009054906101000a900473ffffffffffffffffffffffffffffffffffffffff16905080600160006101000a81548173ffffffffffffffffffffffffffffffffffffffff021916908373ffffffffffffffffffffffffffffffffffffffff1602179055506000600160146101000a81548160ff021916908360018111156109a2576109a1610bd6565b5b0217905550600067ffffffffffffffff8111156109c2576109c1610cbe565b5b6040519080825280602002602001820160405280156109f05781602001602082028036833780820191505090505b5060009080519060200190610a06929190610afb565b504260028190555060008173ffffffffffffffffffffffffffffffffffffffff1647604051610a34906113e6565b60006040518083038185875af1925050503d8060008114610a71576040519150601f19603f3d011682016040523d82523d6000602084013e610a76565b606091505b5050905080610ab1576040517fa1d04b3900000000000000000000000000000000000000000000000000000000815260040160405180910390fd5b8173ffffffffffffffffffffffffffffffffffffffff167f5b690ec4a06fe979403046eaeea5b3ce38524683c3001f662c8b5a829632f7df60405160405180910390a25050505050565b828054828255906000526020600020908101928215610b74579160200282015b82811115610b735782518260006101000a81548173ffffffffffffffffffffffffffffffffffffffff021916908373ffffffffffffffffffffffffffffffffffffffff16021790555091602001919060010190610b1b565b5b509050610b819190610b85565b5090565b5b80821115610b9e576000816000905550600101610b86565b5090565b6000819050919050565b610bb581610ba2565b82525050565b6000602082019050610bd06000830184610bac565b92915050565b7f4e487b7100000000000000000000000000000000000000000000000000000000600052602160045260246000fd5b60028110610c1657610c15610bd6565b5b50565b6000819050610c2782610c05565b919050565b6000610c3782610c19565b9050919050565b610c4781610c2c565b82525050565b6000602082019050610c626000830184610c3e565b92915050565b6000604051905090565b600080fd5b600080fd5b610c8581610ba2565b8114610c9057600080fd5b50565b600081359050610ca281610c7c565b92915050565b600080fd5b6000601f19601f8301169050919050565b7f4e487b7100000000000000000000000000000000000000000000000000000000600052604160045260246000fd5b610cf682610cad565b810181811067ffffffffffffffff82111715610d1557610d14610cbe565b5b80604052505050565b6000610d28610c68565b9050610d348282610ced565b919050565b600067ffffffffffffffff821115610d5457610d53610cbe565b5b602082029050602081019050919050565b600080fd5b6000610d7d610d7884610d39565b610d1e565b90508083825260208201905060208402830185811115610da057610d9f610d65565b5b835b81811015610dc95780610db58882610c93565b845260208401935050602081019050610da2565b5050509392505050565b600082601f830112610de857610de7610ca8565b5b8135610df8848260208601610d6a565b91505092915050565b60008060408385031215610e1857610e17610c72565b5b6000610e2685828601610c93565b925050602083013567ffffffffffffffff811115610e4757610e46610c77565b5b610e5385828601610dd3565b9150509250929050565b600080fd5b60008083601f840112610e7857610e77610ca8565b5b8235905067ffffffffffffffff811115610e9557610e94610e5d565b5b602083019150836001820283011115610eb157610eb0610d65565b5b9250929050565b60008060208385031215610ecf57610ece610c72565b5b600083013567ffffffffffffffff811115610eed57610eec610c77565b5b610ef985828601610e62565b92509250509250929050565b600073ffffffffffffffffffffffffffffffffffffffff82169050919050565b6000610f3082610f05565b9050919050565b610f4081610f25565b82525050565b6000602082019050610f5b6000830184610f37565b92915050565b600080fd5b600067ffffffffffffffff821115610f8157610f80610cbe565b5b610f8a82610cad565b9050602081019050919050565b82818337600083830152505050565b6000610fb9610fb484610f66565b610d1e565b905082815260208101848484011115610fd557610fd4610f61565b5b610fe0848285610f97565b509392505050565b600082601f830112610ffd57610ffc610ca8565b5b813561100d848260208601610fa6565b91505092915050565b60006020828403121561102c5761102b610c72565b5b600082013567ffffffffffffffff81111561104a57611049610c77565b5b61105684828501610fe8565b91505092915050565b60008115159050919050565b6110748161105f565b82525050565b600081519050919050565b600082825260208201905092915050565b60005b838110156110b4578082015181840152602081019050611099565b60008484015250505050565b60006110cb8261107a565b6110d58185611085565b93506110e5818560208601611096565b6110ee81610cad565b840191505092915050565b600060408201905061110e600083018561106b565b818103602083015261112081846110c0565b90509392505050565b60006020828403121561113f5761113e610c72565b5b600061114d84828501610c93565b91505092915050565b600060408201905061116b6000830185610f37565b6111786020830184610f37565b9392505050565b60006060820190506111946000830186610bac565b6111a16020830185610bac565b6111ae6040830184610bac565b949350505050565b6000819050919050565b6111c9816111b6565b82525050565b600067ffffffffffffffff82169050919050565b6111ec816111cf565b82525050565b600061ffff82169050919050565b611209816111f2565b82525050565b600063ffffffff82169050919050565b6112288161120f565b82525050565b600060a08201905061124360008301886111c0565b61125060208301876111e3565b61125d6040830186611200565b61126a606083018561121f565b611277608083018461121f565b9695505050505050565b60008151905061129081610c7c565b92915050565b6000602082840312156112ac576112ab610c72565b5b60006112ba84828501611281565b91505092915050565b7f4e487b7100000000000000000000000000000000000000000000000000000000600052601160045260246000fd5b60006112fd82610ba2565b915061130883610ba2565b92508282039050818111156113205761131f6112c3565b5b92915050565b7f4e487b7100000000000000000000000000000000000000000000000000000000600052603260045260246000fd5b7f4e487b7100000000000000000000000000000000000000000000000000000000600052601260045260246000fd5b600061138f82610ba2565b915061139a83610ba2565b9250826113aa576113a9611355565b5b828206905092915050565b600081905092915050565b50565b60006113d06000836113b5565b91506113db826113c0565b600082019050919050565b60006113f1826113c3565b915081905091905056fea2646970667358221220b8bcf127b705967ad7bc89894670cbdc3e310cc89bf5f8d7c9ed14b5354b4f0164736f6c63430008110033",
  "devdoc": {
    "author": "Stefan Timter",
    "details": "This implements CHainlink VRF v2 and Chainlink Keepers",
    "kind": "dev",
    "methods": {
      "checkUpkeep(bytes)": {
        "details": "This is the function, that the chainlink keeper nodes call , to look for the \"upKeep needed to return true\" The following should be true in order to return true: 1. Our time intervall shoul have passed 2. The lottery should have at least 1 player, and have some ETH 3. Our subscription is funded with LINK 4. The lottery should be in an \"open\" state"
      }
    },
    "title": "A sample Raffle Contract",
    "version": 1
  },
  "userdoc": {
    "kind": "user",
    "methods": {},
    "notice": "This contract is for creating an untamperable decentralized smart contract",
    "version": 1
  },
  "storageLayout": {
    "storage": [
      {
        "astId": 1201,
        "contract": "contracts/Raffle.sol:Raffle",
        "label": "s_players",
        "offset": 0,
        "slot": "0",
        "type": "t_array(t_address_payable)dyn_storage"
      },
      {
        "astId": 1218,
        "contract": "contracts/Raffle.sol:Raffle",
        "label": "s_recentWinner",
        "offset": 0,
        "slot": "1",
        "type": "t_address"
      },
      {
        "astId": 1221,
        "contract": "contracts/Raffle.sol:Raffle",
        "label": "s_raffleState",
        "offset": 20,
        "slot": "1",
        "type": "t_enum(RaffleState)1196"
      },
      {
        "astId": 1223,
        "contract": "contracts/Raffle.sol:Raffle",
        "label": "s_lastTimestamp",
        "offset": 0,
        "slot": "2",
        "type": "t_uint256"
      },
      {
        "astId": 1225,
        "contract": "contracts/Raffle.sol:Raffle",
        "label": "i_interval",
        "offset": 0,
        "slot": "3",
        "type": "t_uint256"
      }
    ],
    "types": {
      "t_address": {
        "encoding": "inplace",
        "label": "address",
        "numberOfBytes": "20"
      },
      "t_address_payable": {
        "encoding": "inplace",
        "label": "address payable",
        "numberOfBytes": "20"
      },
      "t_array(t_address_payable)dyn_storage": {
        "base": "t_address_payable",
        "encoding": "dynamic_array",
        "label": "address payable[]",
        "numberOfBytes": "32"
      },
      "t_enum(RaffleState)1196": {
        "encoding": "inplace",
        "label": "enum Raffle.RaffleState",
        "numberOfBytes": "1"
      },
      "t_uint256": {
        "encoding": "inplace",
        "label": "uint256",
        "numberOfBytes": "32"
      }
    }
  }
}